:10000000006B016B046B076B800E056F086B096B4F
:100010000A6B0B6B0C6B0D6B0E6B0F6B106B116B1C
:10002000136B146B156B936A946A956A96680F0E3E
:10003000926E81688B688C6830EC00F0816A826A0D
:10004000836A0C6B0D6BC60E036F026943EC00F004
:100050000207FCE1033FF9D770EC00F021EF00F05C
:10006000060E046F280E016F00690007FEE1013FD4
:10007000FBD70407F7E1120008670C691200000EB5
:1000800009670D6912000A6B0B6B84B00A6984B2B0
:100090000B69000E0A653CEC00F0000E0B653FECAE
:1000A00000F00AC008F00BC009F01200101F0E6B20
:1000B0001200111F0F6B12001347132B03E413518F
:1000C000816E1200136B1351816E1200142B1443B6
:1000D00003E414C08BFF1200146B14C08BFF1200DA
:1000E0000C67111F0D67101F10675CEC00F0FF0E0E
:1000F0001063816A116766EC00F0FF0E11638B6A72
:100100001567836A010E1563832A83CF15F01200E9
:020000040001F9
:04FFFC0000EF00F022
:020000040030CA
:0600010006191EF38381C5
:06000800FFC0FFE0FF4015
:00000001FF
